:100000000C9461060C94A8060C94A8060C94A806FF
:100010000C94A8060C94A8060C94A8060C94A806A8
:100020000C94A8060C94A8060C94AC0E0C947F0FAC
:100030000C94CD1D0C94A8060C94A8060C94A8064C
:100040000C94A8060C94A8060C94A8060C94A80678
:100050000C94A8060C94411E0C94A8060C94A806B7
:100060000C94A8060C94A8060C94A8060C94A80658
:100070000C94A8060C94A8060C94A8060C94A80648
:100080000C94A8060C94A8060C94A8060C94A80638
:100090000C94A8060C94A8060C94A8060C94A80628
:1000A0000C94A8060C94A8060C94A8060000000066
:1000B000000000000000000000000001E302E30077
:1000C000F1A1F1A2F1A3F1A4F1A5F1A6F1A7028A91
:1000D000048A088A218A228A248A288A00C001C0C8
:1000E00002C003C004C005C006C007C02B141A0814
:1000F00015171C180C12132AE0041607090A0B0D19
:100100000E0F3328E11D1B06190511103637523426
:1001100029C7E3E2C02C2CC13850514F4C1E1F2080
:10012000212223242526272AE03A3B3C3D3E3F2D31
:100130002E2F3028E14041424344456836374B3446
:100140002901E3E2C22C2C31384A4E4D290101012C
:1001500001010101010101A53901010101010101B3
:10016000010101A8E101010101010101010101AA4F
:100170000101010101010101010101A901010101C7
:10018000010101010101010101010101010101015F
:10019000010101010101010101010101010101014F
:1001A000010101010101010101010101010101013F
:1001B000010101010101010101010101010101012F
:1001C000010101010101010101010101010101011F
:1001D000010101010101010101010101010101010F
:1001E00001010101010101010101010101010101FF
:1001F00001010101010101010101010101010101EF
:1002000001010101010101010101010101010101DE
:1002100001010101010101010101010101010101CE
:1002200001010101010101010101010101010101BE
:1002300001010101010101010101010101010101AE
:10024000010101010101010101010101010101019E
:10025000010101010101010101010101010101018E
:100260000101010101010101010101010A00253023
:10027000313662003A200025303258000A722F636E
:1002800020303132333435363738394142434445F2
:10029000460A000A002530325800626F756E6365A9
:1002A000213A20005B735D004B6579626F61726477
:1002B0002073746172742E0A0055534220636F6E6E
:1002C000666967757265642E0A005B575D005B5353
:1002D0005D005B525D005B445D005B435D0020039D
:1002E00043007500730074006F006D0020004B0028
:1002F0006500790062006F00610072006400000018
:10030000080374006D006B00000004030904090277
:100310008D00050100A03209040000010301010065
:100320000921110100012240000705810308000A8C
:100330000904010001030102000921110100012249
:100340004D000705820308000A09040200010300AA
:10035000000009211101000122360007058303086E
:10036000000A090403000203000000092111010032
:100370000122220007058403200001070504032051
:10038000000109040400010300000009211101001B
:100390000122390007058503100001120110010038
:1003A000000008EDFE606001000102000105010986
:1003B00006A101050719E029E71500250195087533
:1003C000018102050819012905950575019102951C
:1003D000017503910105071900297715002501957D
:1003E0007875018102C00631FF0974A101097515F4
:1003F0000026FF009520750881020976150026FF6A
:1004000000952075089102C005010980A1018502AF
:1004100016010026B7001A01002AB70075109501D1
:100420008100C0050C0901A1018503160100269C6D
:10043000021A01002A9C02751095018100C0050175
:100440000902A1010901A1000509190129051500E9
:10045000250195057501810295017503810105014D
:10046000093009311581257F950275088106093803
:100470001581257F950175088106050C0A3802153E
:1004800081257F950175088106C0C005010906A177
:1004900001050719E029E715002501950875018177
:1004A0000295017508810105081901290595057551
:1004B0000191029501750391010507190029FF15A6
:1004C0000026FF00950675088100C00A002530321D
:1004D0005820006B6579626F6172645F7265706F3E
:1004E00072743A20004C45443A20253032580A00B4
:1004F00064656C5F6B65795F6269743A2063616EF5
:1005000027742064656C3A20253032580A006164F3
:10051000645F6B65795F6269743A2063616E27740A
:10052000206164643A20253032580A00646F6E6599
:100530002E0A00626F6F746D616769632073636177
:100540006E3A202E2E2E2000290A002575002F003D
:100550002575005D2800256400200025640020002A
:1005600025640020002564007C0025303258006D91
:100570006F7573656B6579205B62746E7C7820792A
:10058000207620685D287265702F61636C293A209F
:100590005B006D6B5F776865656C5F74696D655F47
:1005A000746F5F6D6178203D2025640A006D6B5F7C
:1005B000776865656C5F6D61785F737065656420F1
:1005C0003D2025640A006D6B5F74696D655F746F13
:1005D0005F6D6178203D2025640A006D6B5F6D6161
:1005E000785F7370656564203D2025640A006D6B3B
:1005F0005F696E74657276616C203D2025640A0027
:100600006D6B5F64656C6179203D2025640A006D27
:100610006B5F776865656C5F74696D655F746F5F4C
:100620006D6178203D2025640A006D6B5F776865F9
:10063000656C5F6D61785F7370656564203D202532
:10064000640A006D6B5F74696D655F746F5F6D61E7
:1006500078203D2025640A006D6B5F6D61785F73C3
:1006600070656564203D2025640A006D6B5F696ECE
:1006700074657276616C203D2025640A006D6B5FA5
:1006800064656C6179203D2025640A000A002575A7
:1006900000363A20776865656C5F74696D655F74D4
:1006A0006F5F6D61783A20000A00257500353A20A9
:1006B000776865656C5F6D61785F73706565643AD6
:1006C00020000A00257500343A2074696D655F7456
:1006D0006F5F6D61783A20000A00257500333A207B
:1006E0006D61785F73706565643A20000A00257556
:1006F00000323A20696E74657276616C286D7329D8
:100700003A20000A00257500313A2064656C617951
:10071000282A31306D73293A20000A092D205661AC
:100720006C756573202D0A004D3E004D25643E20FA
:10073000003F007365742064656661756C740A001F
:10074000433E200077686572652064656C74613A89
:1007500020637572736F723D25642C207768656520
:100760006C3D25640A53656520687474703A2F2FB8
:10077000656E2E77696B6970656469612E6F72674B
:100780002F77696B692F4D6F7573655F6B65797333
:100790000A000A092D204D6F7573656B6579202D50
:1007A0000A4553432F713A09717569740A313A0940
:1007B00064656C6179282A31306D73290A323A09EF
:1007C000696E74657276616C286D73290A333A0913
:1007D0006D61785F73706565640A343A0974696D98
:1007E000655F746F5F6D61780A353A097768656592
:1007F0006C5F6D61785F73706565640A363A09777E
:100800006865656C5F74696D655F746F5F6D617855
:100810000A0A703A097072696E742076616C7565A7
:10082000730A643A097365742064656661756C7453
:10083000730A75703A092B310A646F776E3A092D85
:10084000310A706775703A092B31300A7067646F2E
:10085000776E3A092D31300A0A7370656564203D60
:100860002064656C7461202A206D61785F73706507
:100870006564202A2028726570656174202F2074B9
:10088000696D655F746F5F6D6178290A003F004D87
:100890003E2000433E20004C25640A000A092D201A
:1008A000436F6E736F6C65202D0A4553432F713A69
:1008B00009717569740A6D3A096D6F7573656B65B9
:1008C000790A000A092D204D61676963202D0A64A9
:1008D0003A0964656275670A783A09646562756702
:1008E000206D61747269780A6B3A09646562756794
:1008F000206B6579626F6172640A6D3A09646562A2
:100900007567206D6F7573650A763A09766572733F
:10091000696F6E0A733A097374617475730A633A86
:1009200009636F6E736F6C65206D6F64650A302D9F
:10093000343A096C61796572302D34284631302D96
:100940004634290A506175733A09626F6F746C6F8F
:10095000616465720A653A09656570726F6D0A6E49
:100960003A094E4B524F0A000A002575002E6E6B55
:10097000726F3A20000A002575002E737761705F50
:100980006261636B736C6173685F6261636B7370E8
:100990006163653A20000A002575002E7377617047
:1009A0005F67726176655F6573633A20000A0025B0
:1009B00075002E6E6F5F6775693A20000A00257515
:1009C000002E737761705F72616C745F7267756916
:1009D0003A20000A002575002E737761705F6C6104
:1009E0006C745F6C6775693A20000A002575002EEB
:1009F000636170736C6F636B5F746F5F636F6E7452
:100A0000726F6C3A20000A002575002E73776170B2
:100A10005F636F6E74726F6C5F636170736C6F6332
:100A20006B3A20000A0025303258006B65796D6101
:100A3000705F636F6E6669672E7261773A20000A95
:100A4000002575002E6D6F7573653A20000A00252C
:100A500075002E6B6579626F6172643A20000A003E
:100A60002575002E6D61747269783A20000A0025A0
:100A700075002E656E61626C653A20000A002530B3
:100A800032580064656275675F636F6E6669672ED2
:100A90007261773A20000A00257500646566617509
:100AA0006C745F6C617965723A20003F004E4B5266
:100AB0004F3A206F66660A004E4B524F3A206F6ED7
:100AC0000A0074696D65725F72656164333228294A
:100AD0003A202530346C580A006B6579626F617278
:100AE000645F6E6B726F3A2025580A006B657962FD
:100AF0006F6172645F69646C653A2025580A006B07
:100B00006579626F6172645F70726F746F636F6C2E
:100B10003A2025580A00686F73745F6B6579626FBD
:100B20006172645F6C65647328293A2025580A0055
:100B30000A092D20537461747573202D0A004743F0
:100B4000433A20362E322E30204156522D4C494207
:100B5000433A20322E302E30204156525F415243CC
:100B6000483A20617672350A004F5054494F4E532F
:100B70003A204C55464120424F4F544D414749433E
:100B8000204D4F5553454B45592045585452414BE4
:100B9000455920434F4E534F4C4520434F4D4D41F7
:100BA0004E44204E4B524F20343039360A004255C5
:100BB000494C443A20756E6B6E6F776E2028323147
:100BC0003A35393A323420446563203236203230A7
:100BD0003136290A005649443A2030784645454482
:100BE00028746D6B29205049443A203078363036CD
:100BF0003028437573746F6D204B6579626F617235
:100C00006429205645523A203078303030310A007D
:100C1000444553433A20437573746F6D204B657997
:100C2000626F6172640A000A092D20566572736949
:100C30006F6E202D0A000A6D6F7573653A206F661E
:100C4000660A000A6D6F7573653A206F6E0A000AB6
:100C50006B6579626F6172643A206F66660A000A9A
:100C60006B6579626F6172643A206F6E0A000A6D7B
:100C700061747269783A206F66660A000A6D617461
:100C80007269783A206F6E0A000A64656275673A85
:100C9000206F6E0A000A64656275673A206F6666A7
:100CA0000A000A0A626F6F746C6F616465722E2E9F
:100CB0002E2000433E20006565636F6E6669673ACB
:100CC0000A0011241FBECFEFDAE0DEBFCDBF04B6AD
:100CD00003FE27C08091E0019091E101A091E20123
:100CE000B091E3018730904BA740B04BD1F4109204
:100CF000E0011092E1011092E2011092E30114BEB2
:100D000084B7877F84BF0FB6F894A8958091600060
:100D1000886180936000109260000FBEE0E0F8E30D
:100D2000099511E0A0E0B1E0E4ECF5E502C0059022
:100D30000D92A833B107D9F721E0A8E3B1E001C0D3
:100D40001D92A03EB207E1F70E94E60B0C94E02A48
:100D50000C940000FF93EF93E0913801F09139017A
:100D6000309709F00995EF91FF910895FC01859165
:100D7000803011F0EFDFFBCF0895FF27E0E230E293
:100D800047FF0CC0419597FF09C0EDE26095709553
:100D900080959095611D711D811D911D27FF02C0D9
:100DA000219530E350E2AA27660F771F881F991F0D
:100DB000AA1FA41710F0A41B63955A95A9F7AA308F
:100DC00008F0A95FA05DAF93F395611571058105EA
:100DD000910541F7ED3211F4EF93F395F21718F402
:100DE0003F93F395FBCF8F91B5DFFA95E1F7089527
:100DF000E991F9918591803021F0853219F0AADFCF
:100E0000F9CF089520E0E89455915532C1F350335D
:100E100011F4689455915A3348F4505390F3220FCB
:100E2000022E220F220F200D250FF4CF0EF4219554
:100E300089919991533619F3533729F1533559F163
:100E4000BC0188279927E8945C3621F4899199910F
:100E500068945591543639F446EF7EF077FF0DC013
:100E60008FEF9FEF0AC055374AE039F0583540E11F
:100E700021F0523642E009F00895FF93EF937DDFB1
:100E8000EF91FF91B7CFFF93EF93FC0181918030F9
:100E9000B9F360DFFBCFFF93EF9368DFF1CFDF9310
:100EA000CF93CDB7DEB72596A3DFCF91DF9108951D
:100EB000FC018281462F50E048305105A8F5FA0127
:100EC000EC59F84F0C94952A6C07710776077B074D
:100ED000800785078A078F07811129C08AEB90E078
:100EE0000895811127C088EB90E00895811125C0F5
:100EF00086EB90E00895811123C084EB90E0089583
:100F0000811121C082EB90E0089581111FC080EB18
:100F100090E0089581111DC08EEA90E0089581113E
:100F20001BC08CEA90E0089580E090E008958BEB80
:100F300090E0089589EB90E0089587EB90E00895A4
:100F400085EB90E0089583EB90E0089581EB90E0CD
:100F500008958FEA90E008958DEA90E00895E62FD5
:100F6000F0E09CE0799FE00DF11D112490E3899F52
:100F7000E00DF11D1124E451FF4F84910895E82FF5
:100F8000F0E0EE0FFF1FE05CF04085919491089532
:100F900080B38C7C80BB81B38C7C81BB089585B78A
:100FA000806885BF85B7806885BF0E94C80784B107
:100FB000807784B985B18F6885B98AB1807D8AB917
:100FC0008BB18F628BB987B18F7387B988B1806C11
:100FD00088B9A2E4B1E011961C921E92EAE3F1E016
:100FE0001182108213961C921E9212971382128203
:100FF00015961C921E9214971582148217961C92B5
:101000001E921697178216820895CF92DF92EF9262
:10101000FF920F931F93CF93DF93CAE3D1E0D12CBC
:10102000E5E0CE2EF5E9EF2EF2E0FF2E82E0D816B5
:1010300009F4B9C093E0D91609F4B8C081E0D81614
:1010400009F4AEC0809A889890EA9A95F1F783B136
:101050008095082F017010E01999ABC082E090E0F4
:10106000802B912B1A99A8C024E030E0822B932B7F
:101070001B99A5C028E030E0822B932B23B1022ED0
:10108000000C330B209530952227330F221F332776
:1010900074E0220F331F7A95E1F7822B932B489946
:1010A00091C020E230E0822B932B49998EC020E43E
:1010B00030E0822B932B4A998BC020E830E0822BC2
:1010C000932B4B9988C020E031E0822B932B3699EB
:1010D00085C020E032E0822B932B26B1022E000C3B
:1010E000330B209530952227330F221F3327322FC1
:1010F0002227330F330F822B932B4D9972C020E0A0
:1011000038E0822B932B288139812817390741F148
:101110009983888380910001882301F18091C10126
:1011200080FF04C08AE992E00E94B6068091C10166
:1011300080FF0CC0809100011F928F93FF92EF926D
:101140000E944F070F900F900F900F908091C10158
:1011500080FF04C083E992E00E94B606C0920001BD
:101160000E94C807D394229684E0D8125FCF809162
:101170000001882359F08150809300018823A1F158
:101180008FE99FE00197F1F700C0000081E0DF9157
:10119000CF911F910F91FF90EF90DF90CF90089526
:1011A000819A899851CF849A8C984ECF859A8D9840
:1011B0004BCF80E090E054CF20E030E057CF20E0EC
:1011C00030E05ACF20E030E06ECF20E030E071CF49
:1011D00020E030E074CF20E030E077CF20E030E056
:1011E0007ACF20E030E08DCF80913A0190913B01A1
:1011F000909343018093420180913C0190913D0185
:10120000909345018093440180913E0190913F016C
:101210009093470180934601809140019091410154
:101220009093490180934801B1CFE82FF0E0EE0F91
:10123000FF1FEE5BFE4F808191810895CF92DF9278
:10124000EF92FF920F931F93CF93DF938CE792E07F
:101250000E94B60682E4E82E81E0F82EC0E0D0E0DD
:1012600097E7C92E92E0D92E0EE612E0DF93CF93D6
:10127000DF92CF920E944F0784E792E00E94B60669
:10128000F701819191917F010E94621D9F938F933D
:101290001F930F930E944F078CE692E00E94B606C0
:1012A00021968DB79EB708960FB6F8949EBF0FBED5
:1012B0008DBFC430D105D1F6DF91CF911F910F9131
:1012C000FF90EF90DF90CF900895089580915D0199
:1012D00008959FB7F89410924C019FBF9091D6014A
:1012E000943009F049C02091E9002F709091EC00F2
:1012F00090FD30C090E0922B24E02093E9002091F3
:10130000EB0020FF36C02091EE0027FF32C0209175
:101310004A01222321F02091E80025FF2AC01092E3
:101320004A0126E03091E80035FF16C08093F100B5
:101330008091E80085FD29C08091E80080FFFCCF06
:101340008091E8008E778093E8009F709093E90089
:1013500080E0089590E8CFCF3091D601343049F441
:101360003091EB0035FD05C0215041F481E08093C0
:101370004A019F709093E9008FEF0895EFE9FFE035
:101380003197F1F700C00000CDCF8FB7F89421E07E
:1013900020934C018FBFD9CFCF93DF9300D01F9202
:1013A000CDB7DEB79C018091D601843019F593E06A
:1013B00099833B832A839093E9008FEF9091E80013
:1013C000815095FD06C095ED9A95F1F700008111C9
:1013D000F5CF8091E80085FF0DC040E050E063E06C
:1013E00070E0CE0101960E94A40C8091E8008E77F7
:1013F0008093E8000F900F900F90DF91CF910895A8
:10140000CF93DF9300D01F92CDB7DEB72091D601E6
:10141000243021F522E029839B838A8383E0809313
:10142000E9008FEF9091E800815095FD06C095EDA1
:101430009A95F1F700008111F5CF8091E80085FFC2
:101440000DC040E050E063E070E0CE0101960E94E4
:10145000A40C8091E8008E778093E8000F900F90A5
:101460000F90DF91CF9108959C018091D601843037
:10147000F9F482E08093E9009FEF8091E8009150B9
:1014800085FD06C085ED8A95F1F700009111F5CF35
:101490008091E80085FF0CC040E050E065E070E01E
:1014A000C9010E94A40C8091E8008E778093E80027
:1014B0000895CF93DF93EC018091D601843079F5C4
:1014C00080910B01882371F180910C01882351F1E7
:1014D00085E08093E9008FEF9091E800815095FDC1
:1014E00006C095E19A95F1F700008111F5CF809142
:1014F000E80085FF14C040E050E060E170E0CE01FC
:101500000E94A40C8091E8008E778093E80080E12F
:10151000FE01ADE4B1E001900D928A95E1F7DF9113
:10152000CF91089581E08093E9008FEF9091E800DA
:10153000815095FD06C095ED9A95F1F70000811157
:10154000F5CF8091E80085FFEACF40E050E068E009
:1015500070E0D5CF8AED92E00E94B6068091D50169
:10156000811109C00E94310E0E948E0E8091E2000E
:1015700084608093E200089586ED92E00E94B606B2
:101580001092D501089582ED92E00C94B606209158
:101590004B012F5F822F62E30E94752A992319F075
:1015A00020934B01089510924B0180914C018823A8
:1015B000E9F08091D6018430B9F49091E9009F70F0
:1015C0008091EC0080FD13C080E0892B94E0909323
:1015D000E9009091EB0090FF04C09091EE0097FD20
:1015E0000AC08F708093E90010924C01089580E842
:1015F000ECCF1092F1009091E80095FDFACF909118
:10160000E80090FFEECF9091E8009E779093E8007D
:10161000E8CF42E061EC81E00E94AE0D42E061EC77
:1016200082E00E94AE0D42E061EC83E00E94AE0DCC
:1016300042E261EC84E00E94AE0D42E161EC85E0A3
:101640000C94AE0D8091D801833009F455C030F46C
:10165000813071F1823009F491C008958A3009F423
:101660007DC08B3009F463C0893009F044C080919B
:10167000D701813209F03FC08091DB019091DC01FC
:10168000009711F00497B9F58091E800877F809367
:10169000E8008091E80082FF2AC08091F1008093E9
:1016A0005D018091E8008B778093E8000C94E30D56
:1016B0008091D701813AF9F48091E800877F809387
:1016C000E8008091DB019091DC01892B61F460E1FD
:1016D0008DE491E070E00E94F30C8091E8008B773C
:1016E0008093E800089560E080E090E0F3CF80917F
:1016F000D6018111CECF08958091D701813AD9F7D3
:101700008091DB019091DC01892BA9F78091E800A1
:10171000877F8093E8008091E80080FFFCCF809174
:101720000B018093F1008091E8008E77BDCF80910E
:10173000D701813201F78091DB019091DC01892B87
:10174000D1F68091E800877F8093E8000E94E30D46
:101750008091D90180930B010C9405178091D701DA
:10176000813249F68091E800877F8093E8000E94EB
:10177000E30D8091DA0180935E0108958091D70195
:10178000813A09F0B8CF8091E800877F8093E80024
:101790008091E80080FFFCCF80915E01C2CF089568
:1017A0000C94CF0B0C94CF0B8EEC92E00E94B606FB
:1017B0000C94CF0B0E948A1D8091D401882329F0BC
:1017C0000E94B61D81110C948E0C089584B7877FFA
:1017D00084BF0FB6F894A8958091600088618093CB
:1017E0006000109260000FBE90E080E80FB6F894A1
:1017F00080936100909361000FBE0E94D20B0E9403
:10180000A3110E94310E0E948E0E8091E20084602E
:101810008093E20089E699E00E94451D78948091CA
:10182000D6018430E1F789EB92E00E94B6060E946F
:10183000A51181E091E00E94121188EA92E00E94D5
:10184000B6060E94D00B8091D601853019F00E9417
:10185000AB11F9CF84EA92E00E94B6060E94DA0B3F
:10186000F2CF0C94CB1D8AEC92E00E94B6060C9449
:10187000310C292F33272330310579F158F42130E9
:101880003105F1F02230310519F180E090E020E0DF
:1018900030E01AC02132310599F122323105A9F721
:1018A000653098F770E0FB01EE0FFF1FE65EFE4F1C
:1018B000208131816B5E7E4FFB01808190E004C00E
:1018C00082E190E02BE933E0FA013183208308952F
:1018D0008DE890E02EE033E0F7CF99278130910535
:1018E00061F028F0029789F6EEEDF2E002C0EAE03E
:1018F000F3E0849190E09F01E7CFE0E0F3E0F9CFDF
:10190000653008F0C2CFE62FF0E0EE0FFF1FEC5D70
:10191000FE4F2081318189E090E0D6CF80E189BD02
:1019200082E189BD09B400FEFDCF8091D8008F7D92
:101930008093D8008091E00082608093E0008091E5
:10194000E00081FDFCCF0895AF92BF92DF92EF924D
:10195000FF920F931F93CF93DF93EC018B017A01DA
:101960000E94020ED82E811124C0E114F10439F036
:10197000F70180819181081B190BC80FD91FA12C79
:10198000B12C01151105A9F08091E80085FD22C058
:101990008091E8008E778093E800E114F104A1F0D3
:1019A000F70180819181A80EB91EB182A08285E0E5
:1019B000D82E8D2DDF91CF911F910F91FF90EF9039
:1019C000DF90BF90AF9008950E94020E8823C9F265
:1019D000D82EEFCF89918093F10001501109FFEFCC
:1019E000AF1ABF0ACECF2091DD013091DE0126175C
:1019F0003707A8F06115710529F42091E8002E77CA
:101A00002093E800FC0120E06115710551F42111DB
:101A100008C08091E80082FF33C080E00895B901DA
:101A2000F1CF8091D6018823B9F18530B9F1809149
:101A3000E80083FD2FC08091E80082FDEACF80910D
:101A4000E80080FFE1CF2091F3008091F20090E068
:101A5000922B6115710519F08830910550F021E045
:101A6000089709F020E08091E8008E778093E800E5
:101A7000CBCF21912093F100615071090196E9CFFC
:101A80008091D601882341F0853041F08091E800B3
:101A900083FFBFCF81E0089582E0089583E0089539
:101AA0002091DD013091DE0126173707A8F061157E
:101AB000710529F42091E8002E772093E800FC01BD
:101AC00020E06115710551F4211108C08091E800F2
:101AD00082FF34C080E00895B901F1CF8091D60132
:101AE0008823C1F18530C1F18091E80083FD30C0C9
:101AF0008091E80082FDEACF8091E80080FFE1CF8D
:101B00002091F3008091F20090E0922B6115710515
:101B100019F08830910550F021E0089709F020E095
:101B20008091E8008E778093E800CBCF24912093BA
:101B3000F1003196615071090196E8CF8091D6018C
:101B4000882341F0853041F08091E80083FFBECFCB
:101B500081E0089582E0089583E00895982F9730FA
:101B600028F08F708093E90081E008959093E90058
:101B7000981751F07091EC002091ED005091F00019
:101B800021FD06C09F5FEBCF242F762F50E0F8CFCA
:101B90003091EB003E7F3093EB003091ED003D7FC4
:101BA0003093ED003091EB0031603093EB00709397
:101BB000EC002093ED005093F0002091EE0027FD03
:101BC000E1CF80E008958091D70187FF13C0809115
:101BD000E80082FF06C08091E8008B778093E800E0
:101BE00004C08091D6018111F2CF08958091D60171
:101BF0008823D9F38091E80080FFF8CF8091E80036
:101C00008E77ECCF2091E4003091E50085E690914D
:101C1000EC0090FD20C09091E80092FD20C09091D2
:101C2000D601992391F0953091F09091EB0095FDBC
:101C300010C04091E4005091E5004217530739F37A
:101C400081509A0121F784E0089582E0089583E0AD
:101C5000089581E008959091E80090FFE0CF80E042
:101C600008950E949F0E0E94A70EE0EEF0E0808192
:101C700081608083E8EDF0E080818F77808319BCFC
:101C8000A7EDB0E08C918E7F8C9380818F7E8083D6
:101C90001092D50108950F931F93CF93DF930E9465
:101CA0009F0E0E94A70EC8EDD0E088818F778883B1
:101CB00088818068888388818F7D888319BC109291
:101CC000D6011092D2011092D4011092D30100EEED
:101CD00010E0F80180818B7F808388818160888318
:101CE00042E060E080E00E94AE0DE1EEF0E0808135
:101CF0008E7F8083E2EEF0E080818160808380814E
:101D000088608083F80180818E7F808388818061F4
:101D10008883DF91CF911F910F910895E8EDF0E056
:101D200080818F7E8083E7EDF0E080818160808319
:101D300084E082BF81E08093D5010C944B0EE8EDE6
:101D4000F0E080818E7F80831092E20008951092EF
:101D5000DA001092E10008951F920F920FB60F92D1
:101D600011242F933F934F935F936F937F938F93A0
:101D70009F93AF93BF93EF93FF938091E10082FF16
:101D80000BC08091E20082FF07C08091E1008B7F51
:101D90008093E1000E94C70A8091DA0080FF19C099
:101DA0008091D80080FF15C08091DA008E7F8093EB
:101DB000DA008091D90080FF94C080E189BD82E182
:101DC00089BD09B400FEFDCF81E08093D6010E9459
:101DD000AA0A8091E10080FF19C08091E20080FF93
:101DE00015C08091E2008E7F8093E2008091E20036
:101DF00080618093E2008091D80080628093D80057
:101E000019BC85E08093D6010E94D40B8091E1003B
:101E100084FF29C08091E20084FF25C080E189BD54
:101E200082E189BD09B400FEFDCF8091D8008F7D8D
:101E30008093D8008091E1008F7E8093E1008091B3
:101E4000E2008F7E8093E2008091E20081608093C7
:101E5000E2008091D201882309F449C084E0809394
:101E6000D6010E94330C8091E10083FF29C080914C
:101E7000E20083FF25C08091E100877F8093E1002D
:101E800082E08093D6011092D2018091E1008E7F92
:101E90008093E1008091E2008E7F8093E200809148
:101EA000E20080618093E20042E060E080E00E9416
:101EB000AE0D8091F00088608093F0000E94C30A0C
:101EC000FF91EF91BF91AF919F918F917F916F9112
:101ED0005F914F913F912F910F900FBE0F901F90E8
:101EE000189519BC1092D6010E94BC0A72CF80913D
:101EF000E30087FD02C081E0B2CF83E0B0CF1F9244
:101F00000F920FB60F9211242F933F934F935F932D
:101F10006F937F938F939F93AF93BF93CF93EF93E1
:101F2000FF93C091E900CF708091EC001092E9001E
:101F30008091F000877F8093F00078940E94BB0F1F
:101F40001092E9008091F00088608093F000C093C7
:101F5000E900FF91EF91CF91BF91AF919F918F9148
:101F60007F916F915F914F913F912F910F900FBE95
:101F70000F901F9018951F93CF93DF93CDB7DEB7C7
:101F8000AA970FB6F894DEBF0FBECDBFE7EDF1E024
:101F90008091F100819321E0EF3DF207C9F70E94A3
:101FA000220B8091E80083FF44C08091D70190917B
:101FB000D801492F50E04A30510508F03AC0FA01E3
:101FC000EC51F04F0C94952AEE0F121019101210CC
:101FD00019106D1090101910E510F210803879F07A
:101FE000823839F58091DB018F708093E900809110
:101FF000EB0085FB882780F91092E90006C08091EC
:10200000D3019091D401911182609091E800977F63
:102010009093E8008093F1001092F1008091E80025
:102020008E772DC0282F2D7F21F48823D1F0823088
:1020300059F18091E80083FF0AC08091E800877F12
:102040008093E8008091EB0080628093EB00AA9679
:102050000FB6F894DEBF0FBECDBFDF91CF911F91B9
:1020600008958091D901813021F7933009F080E003
:102070008093D4011092E9008091E800877F8093DB
:10208000E8000E94E30DD5CF8091D9018111F2CFF4
:102090008091DB018F7069F28093E9002091EB0061
:1020A00020FFE8CF933031F48091EB008062809381
:1020B000EB00E0CF9091EB0090619093EB0021E07A
:1020C00030E001C0220F8A95EAF72093EA001092CF
:1020D000EA008091EB008860EACF8111AACF1091CD
:1020E000D9011F778091E3008078812B8093E300F2
:1020F0008091E800877F8093E8000E94E30D809143
:10210000E80080FFFCCF8091E30080688093E300CB
:10211000111104C082E08093D6018BCF83E0FBCF06
:102120008058823008F085CF8091D9019091DA01F2
:102130008C3D23E09207A1F583E08A838AE28983BC
:102140004FB7F894DE01139620E03EE051E2E32F12
:10215000F0E050935700E49120FF03C0E295EF7048
:102160003F5FEF708E2F90E0EA30C0F0C7968D93FE
:102170009D932F5F243159F74FBF8091E800877FEF
:102180008093E8006AE270E0CE0101960E94F30CB1
:102190008091E8008B778093E8004BCFC096E7CF23
:1021A000AE014F5F5F4F6091DB010E94390CBC01B3
:1021B000892B09F43ECF9091E800977F9093E80037
:1021C00089819A810E94500DE3CF803809F031CF88
:1021D0008091E800877F8093E8008091D20180930E
:1021E000F1001CCF811125CF9091D901923008F0D8
:1021F00020CF8091E800877F8093E8009093D20100
:102200000E94E30D8091D201882311F084E005C083
:102210008091E30087FDFACF81E08093D6010E9490
:10222000090B07CF90936401809363010895E091B7
:102230006301F0916401309721F00190F081E02D6D
:10224000099480E00895EF92FF921F93CF93DF935C
:10225000F82E192FE0916301F09164013097A9F1F4
:102260000280F381E02D09958091C10182FF2DC08C
:1022700080FF04C083ED94E00E94B606CF2DD12FDD
:1022800010E18DECE82E84E0F82E8091C10180FFF2
:102290000BC088811F928F93FF92EF920E944F078D
:1022A0000F900F900F900F90115021961111EDCFBC
:1022B0008091C10180FF09C08BEC94E0DF91CF9148
:1022C0001F91FF90EF900C94B606DF91CF911F9174
:1022D000FF90EF900895E0916301F09164013097D1
:1022E00021F00480F581E02D099408952091610189
:1022F000309162012817390771F090936201809341
:102300006101E0916301F0916401309721F0068052
:10231000F781E02D0994089520915F0130916001CB
:102320002817390771F09093600180935F01E09165
:102330006301F0916401309721F00084F185E02D74
:102340000994089508950C94A2110E94F61D0E940C
:10235000CF070C9409205F926F927F928F929F9289
:10236000AF92BF92CF92DF92EF92FF920F931F93A3
:10237000CF93DF9300D000D01F92CDB7DEB70E947D
:10238000050896E6A92E91E0B92E00E010E0882419
:102390008394912C502E802F0E9415097C01F50109
:1023A000C190D1905F018C159D05B1F40F5F1F4F57
:1023B0000430110579F78FEF89838A831B820E948D
:1023C000FF1D8160782F9D838C8349815A816B81A9
:1023D0008D810E947D123DC08091C10181FD0E94CE
:1023E0001E0980E090E0CE24DF243401082E02C0D4
:1023F000660C771C0A94E2F7960126213721232BDD
:1024000009F45EC089835A82E620F72081E0EF2834
:1024100009F480E08B830E94FF1D8160782F9D83EB
:102420008C8349815A816B818D810E947D12498103
:102430005A816B817C818D810E94761D000F111F56
:10244000F801EA59FE4F80819181682679267182D0
:1024500060820E94751D0E9490230E941711909126
:102460006501891799F10E94171180936501909178
:10247000C1019570953061F41F928F9385EE94E0C1
:102480009F938F930E944F070F900F900F900F9084
:10249000809165010F900F900F900F900F90DF913A
:1024A000CF911F910F91FF90EF90DF90CF90BF9051
:1024B000AF909F908F907F906F905F900C94871D4E
:1024C00001968C30910509F090CF70CF0F900F904E
:1024D0000F900F900F90DF91CF911F910F91FF9070
:1024E000EF90DF90CF90BF90AF909F908F907F90B4
:1024F0006F905F9008950C946509CF93DF93CDB7EB
:10250000DEB72B970FB6F894DEBF0FBECDBF942F6A
:102510004F83252F588769877A878B874A855B8504
:10252000452B39F02F3F19F481E09F3F19F080E0EF
:1025300001C081E080FD07C04F81588569857A859B
:102540008B850E94761DDE01119686E0FD011192B9
:102550008A95E9F785E0FE01379601900D928A95FC
:10256000E1F749815A816B817C818D819E810E9436
:10257000B8192B960FB6F894DEBF0FBECDBFDF9112
:10258000CF910895CF93C82F882309F4E0C08238F3
:1025900079F40E94171181FDDAC089E30E94441C7E
:1025A0000E941F1D89E30E94911CCF910C941F1D56
:1025B000833859F40E94171180FDC9C083E50E9439
:1025C000441C0E941F1D83E5EECF843859F40E94FD
:1025D000171182FDBCC087E40E94441C0E941F1D8D
:1025E00087E4E1CF8CEF8C0F813A48F48C2F0E9466
:1025F000F9278111ACC08C2F0E94441CD6CF80E2F9
:102600008C0F883048F4C77081E001C0880FCA95EC
:10261000EAF70E94E41CC9CF8BE58C0F833078F475
:10262000C53A39F0C63A41F083E890E0CF910C9476
:10263000761181E890E0FACF82E890E0F7CF88E564
:102640008C0F853108F083C0C83A09F441C0C93AFB
:1026500009F441C0CA3A09F441C0CB3A09F441C077
:10266000CC3A09F441C0CD3A09F441C0CE3A09F45C
:1026700041C0CF3A09F441C0C13B09F441C0C03B5D
:1026800009F441C0C23B09F441C0C33B09F441C055
:10269000C43B09F441C0C53B09F441C0C63B09F441
:1026A00041C0C73B09F441C0C83B09F441C0C93B24
:1026B00009F441C0CA3B09F441C0CB3B09F441C015
:1026C000CC3B09F441C080E090E0CF910C948C1198
:1026D00082EE90E0FACF89EE90E0F7CF8AEE90E0BC
:1026E000F4CF85EB90E0F1CF86EB90E0EECF83EB7B
:1026F00090E0EBCF84EB90E0E8CF87EB90E0E5CF84
:102700008CEC90E0E2CF8DEC90E0DFCF83E891E0BD
:10271000DCCF8AE891E0D9CF82E991E0D6CF84E995
:1027200091E0D3CF81E292E0D0CF83E292E0CDCFAF
:1027300084E292E0CACF85E292E0C7CF86E292E0DF
:10274000C4CF87E292E0C1CF8AE292E0BECFCF91C0
:102750000895882309F44BC0823871F40E94171140
:1027600081FF45C089E30E94441C0E941F1D89E32C
:102770000E94911C0C941F1D833859F40E9417115C
:1027800080FF35C083E50E94441C0E941F1D83E525
:10279000EFCF843859F40E94171182FF28C087E4D4
:1027A0000E94441C0E941F1D87E4E2CF9CEF980FFB
:1027B000913AF0F290E2980F983050F4877091E0DF
:1027C00001C0990F8A95EAF7892F0E94EA1CD2CF9F
:1027D0009BE5980F933020F480E090E00C94761104
:1027E000885A853120F480E090E00C948C11089593
:1027F000882321F00E94E41C0C941F1D0895882357
:1028000021F00E94EA1C0C941F1D0895CF92DF92C4
:10281000EF92FF920F931F93CF93DF9300D000D0DE
:102820001F92CDB7DEB76C0185E0F601DE0111968F
:1028300001900D928A95E1F7F60120819181438103
:102840005481452B39F09F3F19F481E02F3F19F057
:1028500080E001C081E080FDB9C0F601F280E58032
:10286000E2948FE0E82229839A8389819A810E94E9
:10287000021C8C010E94011C0E94131BE12FE29597
:10288000EF708E2F90E0FC01E85BFB4E0C94952AD4
:10289000581458149014901415154815E614E6149D
:1028A0005F15E61443164316CB16E614E614E0163D
:1028B000812F807F1F70882311F01295107FFF20D9
:1028C000B9F0112329F0812F0E94F81C0E941F1DCE
:1028D000802F0F900F900F900F900F90DF91CF915E
:1028E0001F910F91FF90EF90DF90CF900C94C21248
:1028F000802F0E94A913112309F468C0812F0E9420
:10290000FE1C0F900F900F900F900F90DF91CF91C2
:102910001F910F91FF90EF90DF90CF900C941F1DAF
:10292000812F807F1F70803211F01295107F00235D
:1029300079F0013009F458C0FF2009F464C0EE209A
:1029400059F0F601858180FFC3CF8F70858304C065
:10295000FF2029F1E11010C0812F0F900F900F90F0
:102960000F900F90DF91CF911F910F91FF90EF90FB
:10297000DF90CF900C94F813F1E0812FEF12EDCFA0
:102980000F900F900F900F900F90DF91CF911F91AC
:102990000F91FF90EF90DF90CF900C94091DE11004
:1029A00012C00E940C1D812F0F900F900F900F905E
:1029B0000F90DF91CF911F910F91FF90EF90DF90DB
:1029C000CF900C94FF1381E0E812EBCF0F900F90A3
:1029D0000F900F900F90DF91CF911F910F91FF906B
:1029E000EF90DF90CF900895FF2049F0E5E0EE15DD
:1029F00068F30E94E11C812309F4AECFD4CFF4E048
:102A0000FE1520F3D0CFEE2071F2802F0F900F90A3
:102A10000F900F900F90DF91CF911F910F91FF902A
:102A2000EF90DF90CF900C94A913812F8695869517
:102A30008370A9F0813051F6FF2039F1C8019370FD
:102A40000F900F900F900F900F90DF91CF911F91EB
:102A50000F91FF90EF90DF90CF900C948C11FF209E
:102A600089F0C80193700F900F900F900F900F9006
:102A7000DF91CF911F910F91FF90EF90DF90CF905A
:102A80000C94761180E090E0EECF80E090E0D8CF1B
:102A9000802FFF2089F00E9417220F900F900F9037
:102AA0000F900F90DF91CF911F910F91FF90EF90BA
:102AB000DF90CF900C9403230E947F22EECF812FD2
:102AC000837009F06CC0F11081CF202F22952695DC
:102AD0002770220F220F602F6F70C62ED12CE12C91
:102AE000F12C022E04C0CC0CDD1CEE1CFF1C0A9441
:102AF000D2F704FF2AC06FE070E080E090E004C0ED
:102B0000660F771F881F991F2A95D2F760957095D9
:102B1000809590951695169513701230D1F060F54A
:102B20006C297D298E299F29113051F10F900F902A
:102B30000F900F900F90DF91CF911F910F91FF9009
:102B4000EF90DF90CF900C94281B60E070E0CB01F9
:102B5000E1CF6C297D298E299F290F900F900F902E
:102B60000F900F90DF91CF911F910F91FF90EF90F9
:102B7000DF90CF900C943A1B0E94281BC701B6012E
:102B80000F900F900F900F900F90DF91CF911F91AA
:102B90000F91FF90EF90DF90CF900C94161BFF20C9
:102BA00009F445C0812F8170882309F40FCF202FAD
:102BB000229526952770220F220F602F6F70C62E48
:102BC000D12CE12CF12C022E04C0CC0CDD1CEE1C0F
:102BD000FF1C0A94D2F704FF2CC06FE070E080E085
:102BE00090E004C0660F771F881F991F2A95D2F7BF
:102BF0006095709580959095169516951370123086
:102C0000E1F070F56C297D298E299F29113061F141
:102C10000F900F900F900F900F90DF91CF911F9119
:102C20000F91FF90EF90DF90CF900C94DD1B869575
:102C3000BBCF60E070E0CB01DFCF6C297D298E290E
:102C40009F290F900F900F900F900F90DF91CF91D1
:102C50001F910F91FF90EF90DF90CF900C94EF1B9E
:102C60000E94DD1BC701B6010F900F900F900F90CF
:102C70000F90DF91CF911F910F91FF90EF90DF9018
:102C8000CF900C94CB1B003F91F148F4003E10F51F
:102C9000FF2009F47DC0EE2009F447C019CE023FA1
:102CA00009F454C008F43FC0033F91F7FF2009F432
:102CB00060C0812F8F710F900F900F900F900F9029
:102CC000DF91CF911F910F91FF90EF90DF90CF9008
:102CD0000C94511B0F70812F8F71FF2021F00E94E7
:102CE000661B802F3ACE0E94871B802F5DCEFF206F
:102CF000A9F0F4E0FE1508F469CE812F8F710F90D2
:102D00000F900F900F900F90DF91CF911F910F9127
:102D1000FF90EF90DF90CF900C94AA1B85E08E156A
:102D200008F454CEEACFFF2099F0812F8F710F90D5
:102D30000F900F900F900F90DF91CF911F910F91F7
:102D4000FF90EF90DF90CF900C94661BFF2069F30B
:102D5000812F8F710F900F900F900F900F90DF9138
:102D6000CF911F910F91FF90EF90DF90CF900C9437
:102D7000871B0F900F900F900F900F90DF91CF91C6
:102D80001F910F91FF90EF90DF90CF900C944C1B10
:102D9000EE20F1F23ACE412F4F70602FC6010E9413
:102DA00058070F900F900F900F900F90DF91CF91D9
:102DB0001F910F91FF90EF90DF90CF900C94661AC7
:102DC000412F4F70602FC6010F900F900F900F9002
:102DD0000F90DF91CF911F910F91FF90EF90DF90B7
:102DE000CF900C94AD1F0E94061D0E94D31C0E9420
:102DF0001F1D0E9433240E94032380E090E00E9464
:102E0000761180E090E00C948C110E94F51C0C94DB
:102E1000F3160E94021C292F22952F702C3058F493
:102E20002A3018F42250223050F4803E10F0803FB7
:102E300031F481E008952C3021F02F3011F080E042
:102E4000089593FB882780F90895CF93DF9300D0EE
:102E500000D01F92CDB7DEB70F900F900F900F905C
:102E60000F90DF91CF910895CF93DF9300D000D0E2
:102E700000D0CDB7DEB726960FB6F894DEBF0FBEF2
:102E8000CDBFDF91CF9108951F93CF93DF93C09172
:102E90006E0116E080916F01C81304C0DF91CF91DD
:102EA0001F910895D0E01C9FF0011D9FF00D11248B
:102EB000E059FE4F40815181628173818481958107
:102EC0000E9434172196C770E5CF4091A001509120
:102ED000A1016091A2017091A3018091A401909140
:102EE000A5010C9434171F93CF93DF938091A50114
:102EF00082958F70D1F48091A2018823B1F08091E6
:102F00006E01D0916F01B091A001C091A1014091DB
:102F1000A3015091A401A1E0BF3F09F0A0E0BA01D4
:102F20006095709516E08D1304C0DF91CF911F91CD
:102F3000089541155105D9F1CF3FD9F120E090E036
:102F400020FD3CC0189FF001199FF00D1124E0599D
:102F5000FE4F21812C1332C020812B132FC02281E0
:102F600021112CC0238134812417350720F1241B23
:102F7000350B283C310510F52091A5012F702061FB
:102F80002093A50126E0289FF001299FF00D112430
:102F9000EB58FE4F80818F708061808380EA91E0E2
:102FA0000E940614DF91CF911F910C94441721E0E9
:102FB000C6CF2A2FC4CF260F371FDBCF01968770CD
:102FC000B2CFAF92BF92CF92DF92EF92FF920F9368
:102FD0001F93CF93DF93CDB7DEB761970FB6F89409
:102FE000DEBF0FBECDBF8C0185E0F801DE011D966E
:102FF00001900D928A95E1F7D8014C9111965C9160
:1030000011971296EC903091A0016091A1018091EE
:10301000A3019091A401009739F06F3F19F421E0CA
:103020003F3F19F020E001C021E0B22FB170BB2E6C
:1030300020FD90C1F801C380D480A090A201AA20F5
:1030400009F432C12091A501C816D90610F1D601A4
:10305000A81BB90BCD01FF24F394883C9105F0F037
:10306000F12C207F09F0E9C07C2DD98AC88A6E2D09
:1030700089890E94251780EA91E00E940614E0EAFF
:10308000F1E086E0DF011D928A95E9F70E9465175D
:103090001EC0809590958C0D9D1DDDCF822F807F69
:1030A00009F084C0651325C0341323C0FE2CE11041
:1030B00020C02F7020612093A5010E94651780EA2F
:1030C00091E00E9406148091A501F80185838F2D5F
:1030D00061960FB6F894DEBF0FBECDBFDF91CF91E2
:1030E0001F910F91FF90EF90DF90CF90BF90AF9026
:1030F0000895CD2839F05F3F19F481E04F3F19F072
:1031000080E001C081E080FD24C081E08E25F82FA1
:10311000F170FF2E80FF3FC080916E0120916F0102
:1031200036E0821318C04D875E878D859E850E948C
:10313000021C292F22952F70223008F1243030F5FF
:103140009F7009F1D80115969C91907FE1F4FB2CBA
:10315000BECF80E0DCCF90E0389FF001399FF00DCA
:103160001124E059FE4F6181561306C0608164133B
:1031700003C06281E6120FC001968770D2CF9F70A4
:1031800011F0882321F3805E883008F3C8010E9483
:103190000614BF2CDCCFFE2CEE2009F498CF8091D2
:1031A000A50181608093A501F12C91CF651314C016
:1031B000341312C0E11010C08091A501F80185837D
:1031C000C8010E94061486E0F801A0EAB1E001906F
:1031D0000D928A95E1F75ACF4D875E878D859E8542
:1031E0000E940917882309F4BFC0EE2009F4BCC06F
:1031F0002091A501822F82958F7090E0029774F044
:103200008091A0019091A10198878F831986DB8618
:10321000CA862C87CE0107960E94061486E0F80124
:10322000A0EAB1E001900D928A95E1F70E94731730
:103230000E946517FF24F3944ACF651314C034131A
:1032400012C0E11010C08091A501F8018583C8016A
:103250000E94061486E0E0EAF1E0DF011D928A9503
:10326000E9F7FA2C34CF4D875E878D859E850E94C5
:103270000917882309F478C0EE2009F475C020915D
:10328000A501822F82958F7090E002973CF2809189
:10329000A0019091A1019A8389831B82DD82CC8257
:1032A0002E83CE010196B8CFC816D90680F0F6015C
:1032B000E81BF90BCF01883C910570F0F12C7C2DB7
:1032C000D98AC88A6E2D89890E942517D8CE809503
:1032D00090958C0D9D1DEFCFFE2CEE2009F444C07F
:1032E000651327C0341325C08091A50180FD18C047
:1032F000982F92959F70292F30E02115310581F08C
:10330000D80115968C9315972F30310509F458CFB5
:103310009F5F9295907F8F70892B15968C9350CFDD
:1033200086E0F801A0EAB1E001900D928A95E1F7FC
:10333000CECE4D875E878D859E850E9409178111AF
:103340006DCF8091A50181608093A501C8010E9485
:103350000614BDCEEE2041F04D875E878D859E859B
:103360000E94091781115ACFC8010E94061462CF2A
:103370001F93CF93DF93CDB7DEB72C970FB6F8949A
:10338000DEBF0FBECDBF4F83588769877A878B8793
:103390009C87CE0107960E94E117882349F19F81FF
:1033A00088852A853B85232B39F08F3F19F481E0EE
:1033B0009F3F19F080E001C081E080FD08C04F818F
:1033C000588569857A858B859C850E94341716E01F
:1033D00080916E0190916F01891348C02C960FB6B1
:1033E000F894DEBF0FBECDBFDF91CF911F9108953E
:1033F00086E0FE013796DE01119601900D928A95C6
:10340000E1F7FF81E8856A857B856115710539F0F3
:10341000EF3F19F481E0FF3F19F080E001C081E047
:1034200080FDD5CF20916F0130E0C90101968770F2
:10343000992740916E0150E084179507C9F1F983EF
:10344000EA837D836C8396E0929FD001939FB00DB9
:103450001124A059BE4FFE01319601900D929A950C
:10346000E1F780936F010E944417B1CF819FC001A3
:10347000112480599E4F0E94E117882309F4AECF92
:10348000E0916E011E9FF0011124E059FE4F408132
:10349000518162817381848195810E94341780916A
:1034A0006E0190E001968770992780936E0190CF0E
:1034B0000E94051710926F0110926E01E0EAF1E090
:1034C00086E0DF011D928A95E9F788CFDF92EF92BF
:1034D000FF920F931F93CF93DF938C01892BB1F051
:1034E000E12CF12CDD24D394E8012196F80184919C
:1034F000853709F469C090F4843708F057C08430E8
:1035000008F06EC0813009F18230D9F1DF91CF919E
:103510001F910F91FF90EF90DF900895883709F485
:103520005CC058F4863709F454C0873779F78E2D7C
:103530000E94F21C0E941F1D1FC09CE7980F90372D
:1035400028F78F770E94A91317C00E5F1F4FFE0147
:10355000849190E2980F983060F48770FD2D01C03F
:10356000FF0F8A95EAF78F2F0E94F81C0E941F1DFB
:1035700002C00E94C212E8018F2D811134C08E0159
:10358000B3CF0E5F1F4FFE01849190E2980F9830E9
:1035900050F48770FD2D01C0FF0F8A95EAF78F2F39
:1035A0000E94FE1CE3CF0E94A913E5CF0E5F1F4FC0
:1035B000FE01C491CC23F9F28FE99FE00197F1F766
:1035C00000C00000C150F6CF0E5F1F4FFE01F49007
:1035D000D2CF0E94E11CE82ECFCF0E94F51CAACFCB
:1035E0000E94C212C9CFEFE9FFE03197F1F700C0A6
:1035F00000008150C2CF6093AA017093AB01809309
:10360000AC019093AD010E94851D0C94F31660935C
:10361000A6017093A7018093A8019093A9010E942D
:10362000861D0C94F31608950C94FB1A0F931F93A8
:103630000091AA011091AB012091AC013091AD0134
:10364000602B712B822B932B1F910F910C94FB1AE3
:103650000F931F930091AA011091AB012091AC012F
:103660003091AD0160237123822393231F910F9129
:103670000C94FB1A0F931F930091AA011091AB01B8
:103680002091AC013091AD016027712782279327EB
:103690001F910F910C94FB1A60E070E0CB010C9429
:1036A000071B0F931F9341E050E060E070E08A0138
:1036B0009B0104C0000F111F221F331F8A95D2F7F0
:1036C000C901B8011F910F910C94071B0F931F9311
:1036D00041E050E060E070E004C0440F551F661FF9
:1036E000771F8A95D2F78091A6019091A701A091AA
:1036F000A801B091A9018A019B01082B192B2A2B43
:103700003B2BC901B8011F910F910C94071B0F931C
:103710001F9341E050E060E070E004C0440F551F8B
:10372000661F771F8A95D2F7CB01BA016095709515
:10373000809590950091A6011091A7012091A80174
:103740003091A90160237123822393231F910F914C
:103750000C94071B0F931F9341E050E060E070E072
:1037600004C0440F551F661F771F8A95D2F78091BA
:10377000A6019091A701A091A801B091A9018A0189
:103780009B01082719272A273B27C901B8011F9148
:103790000F910C94071B0F931F930091A60110919A
:1037A000A7012091A8013091A901602B712B822BD8
:1037B000932B1F910F910C94071B0F931F93009154
:1037C000A6011091A7012091A8013091A9016023C1
:1037D0007123822393231F910F910C94071B0F9346
:1037E0001F930091A6011091A7012091A80130918B
:1037F000A90160277127822793271F910F910C94AD
:10380000071B0895CF92DF92EF92FF920F931F93C1
:10381000CF93DF938C01C090A601D090A701E090D8
:10382000A801F090A9018091AA019091AB01A0910B
:10383000AC01B091AD01C82AD92AEA2AFB2ACFE10E
:10384000D0E0D701C6010C2E04C0B695A795979578
:1038500087950A94D2F780FF10C0B8018C2F0E9480
:10386000441F8130910549F0DF91CF911F910F9155
:10387000FF90EF90DF90CF900895219710F7B80157
:1038800080E00E94441FF0CF90910B01992361F1D9
:1038900090910C01992341F1982F969596959695C4
:1038A0009F3088F4E0910D01F0910E01E90FF11DB8
:1038B000877021E030E001C0220F8A95EAF781810C
:1038C000822B818308959091C10190FF22C01F92A5
:1038D0008F938EE095E09F938F930E944F070F90F8
:1038E0000F900F900F90089520910D0130910E01CF
:1038F000F90132969FEF40E05191851751F09F3FBB
:1039000019F4511101C0942F4F5F4E30A9F79F3F1A
:1039100009F40895290F311D97FD3A95F901828325
:10392000089590910B01992371F190910C019923C5
:1039300051F1982F9695969596959F3098F4E09131
:103940000D01F0910E01E90FF11D282F277081E084
:1039500090E001C0880F2A95EAF78095918189232C
:10396000818308959091C10190FF1CC01F928F9395
:1039700080EF94E09F938F930E944F070F900F90DA
:103980000F900F900895E0910D01F0910E019F01AD
:10399000225F3F4F9281891301C012823196E21754
:1039A000F307C1F7089581E090E0E0910D01F091F7
:1039B0000E01E80FF91F1082019680319105A9F7D9
:1039C00008958091C00108959091C001892B809342
:1039D000C0010895982F90958091C001892380930C
:1039E000C00108958093C00108951092C001089508
:1039F0009091BF01892B8093BF010895982F9095D6
:103A00008091BF0189238093BF0108951092BF0167
:103A100008958093AE0108951092AE01089520910B
:103A20000D0130910E01F9013196205F3F4F80E08A
:103A3000919191118F5FE217F307D1F70895E0910B
:103A40000D01F0910E018091C0018083E0910D0184
:103A5000F0910E0180819091BF01892B808390911C
:103A6000AE01992361F0E0910D01F0910E0180818A
:103A7000892B80830E940F1D81111092AE018091CD
:103A80000D0190910E010C942311909339018093B4
:103A900038010895829590E09C01220F331F220F78
:103AA000331F2C7C95958795959587958373282B47
:103AB00030E0C901880F991F8A7A359527952575B9
:103AC000822B0895CF93DF93D92F0E944A1DC82FD0
:103AD0008D2F0E944A1D2C2F30E0322F2227A90162
:103AE000482BCA01DF91CF9108950895CF93DF93BA
:103AF00000D000D01F92CDB7DEB70F900F900F907F
:103B00000F900F90DF91CF910895089508950C9430
:103B10007B1208958091D601843021F11092C20168
:103B200020E488E190E00FB6F894A89580936000B7
:103B30000FBE2093600083B7817F846083BF83B70B
:103B4000816083BF7894889583B78E7F83BF0FB6DB
:103B5000F894A8958091600088618093600010922D
:103B600060000FBE089508950C94B31DCF930E947A
:103B7000B41D0E9405080E94B31DC0E08C2F0E9456
:103B80001509892B31F4CF5FC430C1F780E0CF91A4
:103B9000089581E0FCCF0C9405171F920F920FB689
:103BA0000F9211248F939F93AF93BF938091C20183
:103BB000811113C08091C3019091C401A091C501EE
:103BC000B091C6014196A11DB11D8093C301909390
:103BD000C401A093C501B093C601BF91AF919F915D
:103BE0008F910F900FBE0F901F90189582E084BDAB
:103BF00093E095BD9AEF97BD80936E0008952FB71F
:103C0000F8948091C3019091C401A091C501B09135
:103C1000C6012FBF08952FB7F8946091C30170912A
:103C2000C4018091C5019091C6012FBF0895CF9224
:103C3000DF92EF92FF920F931F932FB7F89440916A
:103C4000C3015091C4016091C5017091C6012FBF9D
:103C50006A017B01EE24FF248C0120E030E0C016D5
:103C6000D106E206F30650F0481B590BCA011F911A
:103C70000F91FF90EF90DF90CF9008954150510940
:103C8000F3CF1F920F920FB60F9211248F939F9331
:103C9000AF93BF938091C3019091C401A091C501DE
:103CA000B091C6010196A11DB11D8093C3019093EF
:103CB000C401A093C501B093C601BF91AF919F917C
:103CC0008F910F900FBE0F901F9018950E94310E8C
:103CD000F8942FEF87EA91E6215080409040E1F779
:103CE00000C0000087E090EBDC018093E00190933E
:103CF000E101A093E201B093E3019CE088E10FB6FB
:103D0000F894A895809360000FBE90936000FFCF59
:103D10008D3B60F4883A70F5853A18F58430F8F4F4
:103D2000813009F469C080E090E00895883E90F405
:103D3000803EA8F48F3BB9F70E9405172FEF80E76C
:103D400092E0215080409040E1F700C000000E94C6
:103D5000661EE9CF803F38F390E09065089590E0CB
:103D60000895853A09F44BC0863A09F44BC083E8BC
:103D700090E40895883A09F448C0893A09F448C0A3
:103D80008A3A09F448C08B3A09F448C08C3A09F4DD
:103D900048C08D3A09F448C08E3A09F448C08F3AB9
:103DA00009F448C0813B09F448C0803B09F448C08D
:103DB000823B09F448C0833B09F448C0843B09F4C2
:103DC00048C0853B09F448C0863B09F448C0873B9E
:103DD00009F448C0883B09F448C0893B09F448C04D
:103DE0008A3B09F448C08B3B09F448C08C3B09F47A
:103DF00048C080E094E4089581E090E0089581E86F
:103E000090E4089582E890E4089582EE94E40895A1
:103E100089EE94E408958AEE94E4089585EB94E4A1
:103E2000089586EB94E4089583EB94E4089584EB7D
:103E300094E4089587EB94E408958CEC94E4089559
:103E40008DEC94E4089583E895E408958AE895E478
:103E5000089582E995E4089584E995E4089581E25E
:103E600096E4089583E296E4089584E296E4089542
:103E700085E296E4089586E296E4089587E296E462
:103E800008958AE296E408950E94AF07803ED8F430
:103E9000803C90F5813309F454C048F4893209F428
:103EA0004AC08A3209F453C00E94881E089589339B
:103EB00031F1823821F18533B9F78091DF0185FF37
:103EC0003EC089E2F1CF833E41F160F4803EE9F0EB
:103ED000823E51F78091DF0182FF23C084FF1BC027
:103EE00080E0E2CF863EF9F0873EF1F68091DF0177
:103EF00083FF1DC086EED8CF0E94BF070895909122
:103F0000DF01937089F280EECFCF8091DF0180FFD7
:103F1000FACF89E3C9CF83EEC7CF8091DF0182FF5B
:103F2000DDCF82EEC1CF8091DF0183FFE3CF84FD3F
:103F3000D7CF87EEB9CF8091DF0185FFC2CF85E370
:103F4000B3CF8091DF0186FF06C08AE2ADCF8091BA
:103F5000DF0186FFFACF81E3A7CF0895BF92CF920A
:103F6000DF92EF92FF920F931F93CF93DF93EC01B9
:103F7000B12C01E010E08B2D0E9415097C01C12CB1
:103F8000D12CC8010C2C02C0880F991F0A94E2F7AB
:103F90008E219F21892BF1F06C2D7B2D80E00E94DA
:103FA000441F8C179D0759F0292F207E392F307C14
:103FB00011F0203A79F490E0C817D90759F481E05C
:103FC000DF91CF911F910F91FF90EF90DF90CF90F5
:103FD000BF9008958FEFC81AD80A8CE0C816D10494
:103FE00081F6B39484E0B812C6CF80E0E9CFCF93D6
:103FF000DF93EC018CE290E00E94AE1F882329F051
:10400000CE01DF91CF910C94AE1F80E0DF91CF9174
:104010000895CF930E947221811102C00E945821FD
:1040200083E395E00E94B606C5E6C15009F008C1D9
:104030008CE295E00E94B60689E290E00E94F71FAC
:10404000811134C18AE290E00E94F71F81110E9421
:10405000582185E090E00E94F71F81110E94661EA2
:104060000E94891D0E947D218093C10187E090E01C
:104070000E94F71F882391F08BE190E00E94F71FC8
:10408000882309F4E6C08091C10181FB992790F94A
:1040900021E0922790FB81F98093C1018091C101B9
:1040A0000E9481210E948F218093DF0180EE90E0A9
:1040B0000E94F71F882341F08091DF01982F90958F
:1040C00090FB80F98093DF0189E390E00E94F71F65
:1040D000882359F08091DF0181FB992790F921E035
:1040E000922790FB81F98093DF0182EE90E00E949D
:1040F000F71F882359F08091DF0182FB992790F9FF
:1041000021E0922790FB82F98093DF0186EE90E018
:104110000E94F71F882359F08091DF0183FB9927C4
:1041200090F921E0922790FB83F98093DF0183EEE1
:1041300090E00E94F71F882359F08091DF0184FBF3
:10414000992790F921E0922790FB84F98093DF0171
:1041500085E390E00E94F71F882359F08091DF01EA
:1041600085FB992790F921E0922790FB85F98093B0
:10417000DF0181E390E00E94F71F882359F08091CE
:10418000DF0186FB992790F921E0922790FB86F9C1
:104190008093DF0181E190E00E94F71F882359F0AE
:1041A0008091DF0187FB992790F921E0922790FB0E
:1041B00087F98093DF018091DF010E949321809134
:1041C000DF0187FB882780F980930C0187E290E06C
:1041D0000E94F71FC82F8EE190E00E94F71F811107
:1041E000C2608FE190E00E94F71F8111C46080E2FD
:1041F00090E00E94F71F8111C86081E290E00E9468
:10420000F71F8111C06182E290E00E94F71F8111C7
:10421000C06283E290E00E94F71F8111C06484E2D3
:1042200090E00E94F71F8823D9F1C0688C2F0E946C
:104230008A216C2F70E080E090E0CF910C94141BE9
:104240000E9405088FE39CE90197F1F700C0000088
:10425000ECCE8EE090E00E94F71F882351F0809111
:10426000C10182FB992790F921E0922790FB82F906
:1042700013CF80E190E00E94F71F9091C101882345
:1042800051F093FB882780F921E0822780FB93F986
:104290009093C10103CF892F809580FB90F9F8CFCF
:1042A000C111C4CF0E948621682FC4CFCF91089539
:1042B0006DEE7EEF80E090E00E94CB2A60E082E02D
:1042C00090E00E94BD2A60E083E090E00E94BD2A59
:1042D00060E084E090E00E94BD2A60E085E090E02C
:1042E0000C94BD2A80E090E00E94B72A21E08D3E28
:1042F0009E4F09F020E0822F089582E090E00C9418
:10430000AF2A682F82E090E00C94BD2A83E090E011
:104310000C94AF2A682F83E090E00C94BD2A84E0CF
:1043200090E00C94AF2A682F84E090E00C94BD2AB2
:104330008091C90180FF12C06091120185E0689FE1
:10434000B00111247595679575956795603871056D
:10435000A8F56115710581F581E0089581FF09C017
:104360006091120185E0689FB001112475956795F1
:10437000EDCF82FF07C06091120185E0689FB00118
:104380001124E4CF9091CA019923A1F06091110109
:10439000961788F72091120185E0289F900111243B
:1043A000929FA001939F500D112470E0CA010E94BA
:1043B000812ACCCF65E070E0862F08958FE70895BD
:1043C0008091C90180FF0CC06091100170E075956B
:1043D0006795759567956115710539F581E00895C3
:1043E00081FF06C06091100170E075956795F3CF6D
:1043F00082FF08C06091100170E06038710558F3C9
:104400008FE708958091CA01882369F060910F01B8
:10441000861780F790911001899FC001112470E0E8
:104420000E94812AEACF61E070E0862F0895803FE4
:1044300031F40E94982181958093CD010895813FA8
:1044400019F40E949821F8CF823F31F40E949821FC
:1044500081958093CC010895833F19F40E9498219F
:10446000F8CF893F29F40E94E0218093CE0108957E
:104470008A3F21F40E94E0218195F7CF8B3F31F4F0
:104480000E94E02181958093CF0108958C3F19F41B
:104490000E94E021F8CF843F31F48091CB0181600C
:1044A0008093CB010895853F21F48091CB018260F8
:1044B000F7CF863F21F48091CB018460F1CF873F15
:1044C00021F48091CB018860EBCF883F21F480916B
:1044D000CB018061E5CF8D3F31F48091C9018160CE
:1044E0008093C90108958E3F21F48091C9018260B3
:1044F000F7CF8F3FB9F78091C9018460F1CF803F3A
:10450000C1F48091CD0187FD1092CD018091CC0145
:1045100081110EC08091CD0181110AC08091CE0120
:10452000811106C08091CF01811102C01092CA0191
:104530000895813F29F48091CD0118162CF3E6CF20
:104540009091CC01823F29F497FFE0CF1092CC01EB
:10455000DDCF833F19F41916CCF3D8CF893F39F456
:104560008091CE01181694F61092CE01CFCF8A3FDB
:1045700029F48091CE0187FFC9CFF6CF8B3F39F464
:104580008091CF0187FFC2CF1092CF01BFCF8C3F68
:1045900029F48091CF011816BCF3B8CF843F31F4D1
:1045A0008091CB018E7F8093CB01B0CF853F21F4EA
:1045B0008091CB018D7FF7CF863F21F48091CB0195
:1045C0008B7FF1CF873F21F48091CB01877FEBCFA9
:1045D000883F21F48091CB018F7EE5CF8D3F31F470
:1045E0008091C9018E7F8093C90190CF8E3F21F4C5
:1045F0008091C9018D7FF7CF8F3F09F087CF8091E0
:10460000C9018B7FF0CF8091C10183FF7EC08FE60F
:1046100095E00E94B6068091CB011F928F938AE6A7
:1046200095E09F938F930E944F0788E695E00E9444
:10463000B6068091CC01282F082E000C330B3F9337
:104640008F9385E695E09F938F930E944F0783E6B3
:1046500095E00E94B6068091CD01282F082E000C0F
:10466000330B3F938F9380E695E09F938F930E9447
:104670004F078EE595E00E94B6068091CE01282F67
:10468000082E000C330B3F938F938BE595E09F939F
:104690008F930E944F0789E595E00E94B6068091AE
:1046A000CF01282F082E000C330B3F938F9386E504
:1046B00095E09F938F930E944F0783E595E00E94BA
:1046C000B6068091CA011F928F9380E595E09F9373
:1046D0008F930E944F078EE495E00E94B60680916A
:1046E000C9011F928F938BE495E09F938F930E9453
:1046F0004F0788E495E00E94B6068DB79EB74C96AA
:104700000FB6F8949EBF0FBE8DBF8BEC91E00E9458
:104710006B110E94FF1D9093C8018093C7010895FB
:104720001F93CF93DF938091C7019091C8010E949E
:10473000171EAC019091CA019923D1F02091130169
:1047400030E04217530780F08091CC01C091CD0139
:10475000D091CE011091CF01811111C0C1117FC044
:10476000D1117DC011117BC0DF91CF911F910895B0
:10477000209114018AE0289F90011124E2CF9F3FED
:1047800019F09F5F9093CA01181624F40E94982193
:104790008093CC018091CC0187FF05C00E949821B5
:1047A00081958093CC011C1624F40E94982180935B
:1047B000CD018091CD0187FF05C00E949821819590
:1047C0008093CD016091CC01662331F1C091CD0180
:1047D000CC2311F1062E000C770B880B990B0E944D
:1047E0007C2923E333E343E35FE30E94E0290E9453
:1047F00044296093CC016C2FCC0F770B880B990B5D
:104800000E947C2923E333E343E35FE30E94E02932
:104810000E9444296093CD011D1624F40E94E021DA
:104820008093CE018091CE0187FF05C00E94E021D8
:1048300081958093CE01111624F40E94E02180938B
:10484000CF018091CF0187FF05C00E94E0218195B3
:104850008093CF01DF91CF911F910C9403239F3F51
:1048600009F08FCFA0CFEBECF1E085E0DF011D92E6
:104870008A95E9F71092CA011092C901089582E958
:1048800097E00E94B6061F9281E08F931F9285E009
:104890008F9384E497E09F938F930E944F070F902C
:1048A0000F900F900F900F900F900895833009F4A0
:1048B00045C028F4813061F0823049F10895853097
:1048C00009F46AC008F451C0863009F47CC0089528
:1048D00080911401262F30E0280F311D2F3F310524
:1048E00094F4680F60931401809114011F928F93C8
:1048F0008DE796E09F938F930E944F070F900F9044
:104900000F900F9008958FEF80931401EDCF809159
:104910001301262F30E0280F311D2F3F310554F4AD
:10492000680F60931301809113011F928F938BE6A0
:1049300096E0E0CF8FEF80931301F5CF80911201C5
:10494000262F30E0280F311D2F3F310554F4680F1A
:1049500060931201809112011F928F9388E596E077
:10496000C9CF8FEF80931201F5CF80911101262FCF
:1049700030E0280F311D2F3F310554F4680F60934C
:104980001101809111011F928F9383E496E0B2CFC1
:104990008FEF80931101F5CF80911001262F30E029
:1049A000280F311D2F3F310554F4680F609310011B
:1049B000809110011F928F938AE296E09BCF8FEF38
:1049C00080931001F5CF20910F01862F90E0820F88
:1049D000911D8F3F910554F4620F60930F018091F8
:1049E0000F011F928F938FE096E084CF8FEF80931B
:1049F0000F01F5CF8330C9F128F4813061F08230A6
:104A000019F10895853009F452C008F43FC086308A
:104A100009F45EC0089580911401681790F4861B14
:104A200080931401809114011F928F9380E096E08F
:104A30009F938F930E944F070F900F900F900F90AE
:104A4000089510921401EECF80911301681750F46D
:104A5000861B80931301809113011F928F938EEE1A
:104A600095E0E6CF10921301F6CF809112016817FE
:104A700050F4861B80931201809112011F928F9334
:104A80008BED95E0D5CF10921201F6CF80911101F8
:104A9000681750F4861B80931101809111011F92B9
:104AA0008F9386EC95E0C4CF10921101F6CF8091E0
:104AB0001001681750F4861B80931001809110013B
:104AC0001F928F938DEA95E0B3CF10921001F6CF2D
:104AD00080910F01681750F4861B80930F0180911D
:104AE0000F011F928F9382E995E0A2CF10920F01E0
:104AF000F6CFCF93C82F1F928F9387E998E09F93AB
:104B00008F930E944F0761E070E080E090E004C066
:104B1000660F771F881F991FCA95D2F70E94141B32
:104B20000F900F900F900F90CF910C940517CF938B
:104B30008B3109F4DAC108F04DC08E3009F4E8C1B8
:104B4000B8F4873009F4BAC148F4863009F4A4C136
:104B50008BEA9AE00E94B606C0E03FC2883009F4B2
:104B60006BC08B30A9F783EC98E00E94B60692C127
:104B7000813109F424C290F4803151F78091C10150
:104B800083FB992790F921E0922790FB83F980938A
:104B9000C10183FFD0C183E49CE0A1C1863109F447
:104BA000CDC18931A9F687E29CE00E94B60680E17A
:104BB0009CE00E94B60685ED9BE00E94B6068EEA58
:104BC0009BE00E94B60689E69BE00E94B6068EE353
:104BD0009BE0CBCF853361F078F4873249F028F43D
:104BE0008E3108F4B5CF8D5104C0893209F0B0CFB1
:104BF00080E00E9479254EC1833438F48A3308F06E
:104C0000F2C1883309F4AFCFA3CF833489F388345A
:104C100009F09ECF0E94051782EA9CE00E94B6062A
:104C20009FEF23ED80E3915020408040E1F700C0EA
:104C300000000E94661E2EC187EB9CE00E94B60613
:104C40008BE99AE00E94B6060E9486211F928F93FC
:104C500088E99AE09F938F930E944F0786E99AE034
:104C60000E94B6060E947D21C82F83E89AE00E9428
:104C7000B6061F92CF938EE79AE09F938F930E9480
:104C80004F078CE79AE00E94B60682E79AE00E94FE
:104C9000B6068C2F81701F928F938FE69AE09F93B8
:104CA0008F930E944F078DE69AE00E94B60683E636
:104CB0009AE00E94B606C1FB882780F91F928F9365
:104CC00080E69AE09F938F930E944F078EE59AE0CB
:104CD0000E94B60682E59AE00E94B606C2FB8827CB
:104CE00080F91F928F938FE49AE09F938F930E9495
:104CF0004F078DE49AE00E94B60684E49AE00E9491
:104D0000B606C3FBCC27C0F91F92CF9381E49AE08B
:104D10009F938F930E944F078FE39AE00E94B606FD
:104D20000E948F21C82F8BE29AE00E94B6061F9244
:104D3000CF9386E29AE09F938F930E944F0784E27D
:104D40009AE00E94B6068BE09AE00E94B6068C2F8D
:104D500081701F928F9388E09AE09F938F930E94B7
:104D60004F078DB79EB780960FB6F8949EBF0FBEC3
:104D70008DBF86E09AE00E94B6068FEE99E00E9411
:104D8000B606C1FB882780F91F928F938CEE99E0BD
:104D90009F938F930E944F078AEE99E00E94B60678
:104DA00088ED99E00E94B606C2FB882780F91F9221
:104DB0008F9385ED99E09F938F930E944F0783ED2A
:104DC00099E00E94B60681EC99E00E94B606C3FB0A
:104DD000882780F91F928F938EEB99E09F938F9392
:104DE0000E944F078CEB99E00E94B60682EB99E097
:104DF0000E94B606C4FB882780F91F928F938FEA22
:104E000099E09F938F930E944F078DEA99E00E944B
:104E1000B6068BE999E00E94B606C5FB882780F9A3
:104E20001F928F9388E999E09F938F930E944F0779
:104E300086E999E00E94B6068AE799E00E94B606E4
:104E4000C6FB882780F91F928F9387E799E09F938D
:104E50008F930E944F0785E799E00E94B6068DE682
:104E600099E00E94B606C7FBCC27C0F91F92CF93EA
:104E70008AE699E09F938F930E944F0788E699E016
:104E80000E94B6068DB79EB74C960FB6F8949EBF9B
:104E90000FBE8DBFC1E0A1C08091C101817F8E7F17
:104EA0008093C1018CE998E00E94B60683EB9CE0F8
:104EB0000E94B60681E08093D101ECCF8091C101C0
:104EC00080FF0BC085E99CE00E94B6068091C1017D
:104ED000817F8E7F8093C101DDCF89E89CE00E94B5
:104EE000B6068091C1018160F5CF8091C10181FB3F
:104EF000992790F921E0922790FB81F98093C101D5
:104F000081FF03C08CE79CE0EACF8EE69CE02DCECB
:104F10008091C10182FB992790F921E0922790FBB3
:104F200082F98093C10182FF03C08FE59CE0D7CF57
:104F30008FE49CE01ACE86E39CE017CE80E39BE0F2
:104F40000E94B6060E9417111F928F9386E19BE084
:104F50009F938F930E944F0780910B011F928F9315
:104F60008FEF9AE09F938F930E944F0780915E018D
:104F70001F928F938CEE9AE09F938F930E944F071E
:104F800080910C011F928F9389ED9AE09F938F93EC
:104F90000E944F070E940B1E9F938F937F936F93E6
:104FA00082EC9AE09F938F930E944F078DB79EB734
:104FB00046960FB6F8949EBF0FBE8DBF6BCF0E9472
:104FC0000517C0910C0181E0C827C0930C01CC23C8
:104FD00039F088EB9AE00E94B6068C2FCF910895A5
:104FE0008DEA9AE0C2CD895304CE80E008950C94F6
:104FF000F527CF93C82F8091D1018130D1F038F0BF
:10500000823009F44DC01092D10180E010C0E091CF
:105010000D01F0910E0180818232B9F78C2F0E9430
:10502000F72781111EC08C2F0E9497258170CF9188
:105030000895E0910D01F0910E018081823271F3AB
:105040008C2F0E94F52781111BC0C431D9F060F468
:10505000CB3071F0C031D1F08DE898E00E94B606F7
:1050600013C081E090E0E2CFC93261F0C833A1F70C
:105070008CE998E00E94B60683E998E00E94B606A3
:1050800081E0D4CF1092D10180E0D0CF0E943F24A4
:105090008FE898E00E94B60682E08093D101F0CFBD
:1050A000C432C8F4CE3108F0BEC0CB30E1F040F4D9
:1050B000C73009F4CFC081E397E00E94B60626C04E
:1050C000C331C1F1C431B9F78091D001882351F1C6
:1050D0001092D0010AC0CB3409F4BAC0C8F4C93266
:1050E00099F3C83341F70E943F248091D00188236F
:1050F00009F4C7C01F928F938BE297E09F938F9321
:105100000E944F070F900F900F900F9081E08FCF6C
:10511000C13509F497C0C23509F48EC0CE3459F6B2
:105120006AE091C080E497E00E94B60681E0809337
:10513000D1017DCF8AE197E00E94B60688E097E032
:105140000E94B606809114011F928F9385E097E02C
:105150009F938F930E944F0783E097E00E94B606CB
:1051600081EF96E00E94B606809113011F928F9303
:105170008EEE96E09F938F930E944F078CEE96E001
:105180000E94B6068DED96E00E94B606809112014F
:105190001F928F938AED96E09F938F930E944F0703
:1051A00088ED96E00E94B60687EC96E00E94B6066F
:1051B000809111011F928F9384EC96E09F938F93BF
:1051C0000E944F0782EC96E00E94B6068DEA96E0B8
:1051D0000E94B606809110011F928F938AEA96E092
:1051E0009F938F930E944F0788EA96E00E94B6062D
:1051F00081E996E00E94B60680910F011F928F937D
:105200008EE896E09F938F930E944F078CE896E07C
:105210000E94B6068DB79EB748960FB6F8949EBF0B
:105220000FBE8DBF62CFCE51EC2FF0E0E25DFE4F9E
:1052300080818093D00159CF61E08091D0010E949C
:10524000562453CF61E08091D0010E94FA244DCFC3
:105250006AE0F3CF8EE18093140182E3809313011F
:105260008AE08093120184E18093110188E08093A9
:10527000100188E280930F0183E397E00E94B60655
:1052800034CF88E297E019CF0E944B296894B1117E
:105290000C94DA2908950E94BF2988F09F5798F04E
:1052A000B92F9927B751B0F0E1F0660F771F881F2B
:1052B000991F1AF0BA95C9F714C0B13091F00E9445
:1052C000D929B1E008950C94D929672F782F882720
:1052D000B85F39F0B93FCCF3869577956795B3956C
:1052E000D9F73EF490958095709561957F4F8F4FDB
:1052F0009F4F0895E89409C097FB3EF490958095E0
:10530000709561957F4F8F4F9F4F9923A9F0F92F8B
:1053100096E9BB279395F695879577956795B79509
:10532000F111F8CFFAF4BB0F11F460FF1BC06F5FEF
:105330007F4F8F4F9F4F16C0882311F096E911C001
:10534000772321F09EE8872F762F05C0662371F022
:1053500096E8862F70E060E02AF09A95660F771F36
:10536000881FDAF7880F9695879597F9089557FD66
:105370009058440F551F59F05F3F71F04795880FC3
:1053800097FB991F61F09F3F79F08795089512165A
:1053900013061406551FF2CF4695F1DF08C0161606
:1053A00017061806991FF1CF8695710561050894B7
:1053B0000895E894BB2766277727CB0197F90895CE
:1053C0000E94F3290C94642A0E94562A38F00E9405
:1053D0005D2A20F0952311F00C944D2A0C94532A49
:1053E00011240C94DA290E94B72970F3959FC1F318
:1053F000950F50E0551F629FF001729FBB27F00D83
:10540000B11D639FAA27F00DB11DAA1F649F6627D7
:10541000B00DA11D661F829F2227B00DA11D621F26
:10542000739FB00DA11D621F839FA00D611D221FE0
:10543000749F3327A00D611D231F849F600D211DC4
:10544000822F762F6A2F11249F5750409AF0F1F047
:1054500088234AF0EE0FFF1FBB1F661F771F881FB0
:1054600091505040A9F79E3F510580F00C944D2A71
:105470000C94DA295F3FE4F3983ED4F38695779550
:105480006795B795F795E7959F5FC1F7FE2B880F56
:10549000911D9695879597F9089597F99F6780E8EC
:1054A00070E060E008959FEF80EC089500240A9476
:1054B0001616170618060906089500240A941216EF
:1054C0001306140605060895092E0394000C11F422
:1054D000882352F0BB0F40F4BF2B11F460FF04C0CF
:1054E0006F5F7F4F8F4F9F4F0895991B79E004C0E6
:1054F000991F961708F0961B881F7A95C9F7809513
:10550000089597FB072E16F4009407D077FD09D075
:105510000E949B2A07FC05D03EF4909581959F4FF1
:105520000895709561957F4F0895EE0FFF1F0590C8
:10553000F491E02D0994AA1BBB1B51E107C0AA1FDF
:10554000BB1FA617B70710F0A61BB70B881F991F24
:105550005A95A9F780959095BC01CD010895F999C8
:10556000FECF92BD81BDF89A992780B50895A8E134
:10557000B0E042E050E00C94D22A262FF999FECFF9
:105580001FBA92BD81BD20BD0FB6F894FA9AF99A60
:105590000FBE019608950E94BD2A272F0C94BE2AA3
:1055A000DC01CB01FC01F999FECF06C0F2BDE1BDE3
:1055B000F89A319600B40D9241505040B8F70895D2
:0455C000F894FFCF8D
:1055C400056609590A340A000ACC090101AF012809
:1055D40008140A321E404D3622398B043E04080456
:1055E400E603AD032003390352036B038B0301026B
:0855F400030405060708090085
:00000001FF
